{
  "address": "0xf9eA7c3287C1da01281269A320fa08dB1d6746c8",
  "abi": [
    {
      "inputs": [
        {
          "internalType": "contract RoleStore",
          "name": "_roleStore",
          "type": "address"
        }
      ],
      "stateMutability": "nonpayable",
      "type": "constructor"
    },
    {
      "inputs": [
        {
          "internalType": "address",
          "name": "msgSender",
          "type": "address"
        },
        {
          "internalType": "string",
          "name": "role",
          "type": "string"
        }
      ],
      "name": "Unauthorized",
      "type": "error"
    },
    {
      "inputs": [
        {
          "internalType": "bytes32",
          "name": "setKey",
          "type": "bytes32"
        },
        {
          "internalType": "address",
          "name": "value",
          "type": "address"
        }
      ],
      "name": "addAddress",
      "outputs": [],
      "stateMutability": "nonpayable",
      "type": "function"
    },
    {
      "inputs": [
        {
          "internalType": "bytes32",
          "name": "setKey",
          "type": "bytes32"
        },
        {
          "internalType": "bytes32",
          "name": "value",
          "type": "bytes32"
        }
      ],
      "name": "addBytes32",
      "outputs": [],
      "stateMutability": "nonpayable",
      "type": "function"
    },
    {
      "inputs": [
        {
          "internalType": "bytes32",
          "name": "setKey",
          "type": "bytes32"
        },
        {
          "internalType": "uint256",
          "name": "value",
          "type": "uint256"
        }
      ],
      "name": "addUint",
      "outputs": [],
      "stateMutability": "nonpayable",
      "type": "function"
    },
    {
      "inputs": [
        {
          "internalType": "bytes32",
          "name": "",
          "type": "bytes32"
        },
        {
          "internalType": "uint256",
          "name": "",
          "type": "uint256"
        }
      ],
      "name": "addressArrayValues",
      "outputs": [
        {
          "internalType": "address",
          "name": "",
          "type": "address"
        }
      ],
      "stateMutability": "view",
      "type": "function"
    },
    {
      "inputs": [
        {
          "internalType": "bytes32",
          "name": "",
          "type": "bytes32"
        }
      ],
      "name": "addressValues",
      "outputs": [
        {
          "internalType": "address",
          "name": "",
          "type": "address"
        }
      ],
      "stateMutability": "view",
      "type": "function"
    },
    {
      "inputs": [
        {
          "internalType": "bytes32",
          "name": "key",
          "type": "bytes32"
        },
        {
          "internalType": "int256",
          "name": "value",
          "type": "int256"
        }
      ],
      "name": "applyBoundedDeltaToUint",
      "outputs": [
        {
          "internalType": "uint256",
          "name": "",
          "type": "uint256"
        }
      ],
      "stateMutability": "nonpayable",
      "type": "function"
    },
    {
      "inputs": [
        {
          "internalType": "bytes32",
          "name": "key",
          "type": "bytes32"
        },
        {
          "internalType": "int256",
          "name": "value",
          "type": "int256"
        }
      ],
      "name": "applyDeltaToInt",
      "outputs": [
        {
          "internalType": "int256",
          "name": "",
          "type": "int256"
        }
      ],
      "stateMutability": "nonpayable",
      "type": "function"
    },
    {
      "inputs": [
        {
          "internalType": "bytes32",
          "name": "key",
          "type": "bytes32"
        },
        {
          "internalType": "int256",
          "name": "value",
          "type": "int256"
        },
        {
          "internalType": "string",
          "name": "errorMessage",
          "type": "string"
        }
      ],
      "name": "applyDeltaToUint",
      "outputs": [
        {
          "internalType": "uint256",
          "name": "",
          "type": "uint256"
        }
      ],
      "stateMutability": "nonpayable",
      "type": "function"
    },
    {
      "inputs": [
        {
          "internalType": "bytes32",
          "name": "key",
          "type": "bytes32"
        },
        {
          "internalType": "uint256",
          "name": "value",
          "type": "uint256"
        }
      ],
      "name": "applyDeltaToUint",
      "outputs": [
        {
          "internalType": "uint256",
          "name": "",
          "type": "uint256"
        }
      ],
      "stateMutability": "nonpayable",
      "type": "function"
    },
    {
      "inputs": [
        {
          "internalType": "bytes32",
          "name": "",
          "type": "bytes32"
        },
        {
          "internalType": "uint256",
          "name": "",
          "type": "uint256"
        }
      ],
      "name": "boolArrayValues",
      "outputs": [
        {
          "internalType": "bool",
          "name": "",
          "type": "bool"
        }
      ],
      "stateMutability": "view",
      "type": "function"
    },
    {
      "inputs": [
        {
          "internalType": "bytes32",
          "name": "",
          "type": "bytes32"
        }
      ],
      "name": "boolValues",
      "outputs": [
        {
          "internalType": "bool",
          "name": "",
          "type": "bool"
        }
      ],
      "stateMutability": "view",
      "type": "function"
    },
    {
      "inputs": [
        {
          "internalType": "bytes32",
          "name": "",
          "type": "bytes32"
        },
        {
          "internalType": "uint256",
          "name": "",
          "type": "uint256"
        }
      ],
      "name": "bytes32ArrayValues",
      "outputs": [
        {
          "internalType": "bytes32",
          "name": "",
          "type": "bytes32"
        }
      ],
      "stateMutability": "view",
      "type": "function"
    },
    {
      "inputs": [
        {
          "internalType": "bytes32",
          "name": "",
          "type": "bytes32"
        }
      ],
      "name": "bytes32Values",
      "outputs": [
        {
          "internalType": "bytes32",
          "name": "",
          "type": "bytes32"
        }
      ],
      "stateMutability": "view",
      "type": "function"
    },
    {
      "inputs": [
        {
          "internalType": "bytes32",
          "name": "setKey",
          "type": "bytes32"
        },
        {
          "internalType": "address",
          "name": "value",
          "type": "address"
        }
      ],
      "name": "containsAddress",
      "outputs": [
        {
          "internalType": "bool",
          "name": "",
          "type": "bool"
        }
      ],
      "stateMutability": "view",
      "type": "function"
    },
    {
      "inputs": [
        {
          "internalType": "bytes32",
          "name": "setKey",
          "type": "bytes32"
        },
        {
          "internalType": "bytes32",
          "name": "value",
          "type": "bytes32"
        }
      ],
      "name": "containsBytes32",
      "outputs": [
        {
          "internalType": "bool",
          "name": "",
          "type": "bool"
        }
      ],
      "stateMutability": "view",
      "type": "function"
    },
    {
      "inputs": [
        {
          "internalType": "bytes32",
          "name": "setKey",
          "type": "bytes32"
        },
        {
          "internalType": "uint256",
          "name": "value",
          "type": "uint256"
        }
      ],
      "name": "containsUint",
      "outputs": [
        {
          "internalType": "bool",
          "name": "",
          "type": "bool"
        }
      ],
      "stateMutability": "view",
      "type": "function"
    },
    {
      "inputs": [
        {
          "internalType": "bytes32",
          "name": "key",
          "type": "bytes32"
        },
        {
          "internalType": "int256",
          "name": "value",
          "type": "int256"
        }
      ],
      "name": "decrementInt",
      "outputs": [
        {
          "internalType": "int256",
          "name": "",
          "type": "int256"
        }
      ],
      "stateMutability": "nonpayable",
      "type": "function"
    },
    {
      "inputs": [
        {
          "internalType": "bytes32",
          "name": "key",
          "type": "bytes32"
        },
        {
          "internalType": "uint256",
          "name": "value",
          "type": "uint256"
        }
      ],
      "name": "decrementUint",
      "outputs": [
        {
          "internalType": "uint256",
          "name": "",
          "type": "uint256"
        }
      ],
      "stateMutability": "nonpayable",
      "type": "function"
    },
    {
      "inputs": [
        {
          "internalType": "bytes32",
          "name": "key",
          "type": "bytes32"
        }
      ],
      "name": "getAddress",
      "outputs": [
        {
          "internalType": "address",
          "name": "",
          "type": "address"
        }
      ],
      "stateMutability": "view",
      "type": "function"
    },
    {
      "inputs": [
        {
          "internalType": "bytes32",
          "name": "key",
          "type": "bytes32"
        }
      ],
      "name": "getAddressArray",
      "outputs": [
        {
          "internalType": "address[]",
          "name": "",
          "type": "address[]"
        }
      ],
      "stateMutability": "view",
      "type": "function"
    },
    {
      "inputs": [
        {
          "internalType": "bytes32",
          "name": "setKey",
          "type": "bytes32"
        }
      ],
      "name": "getAddressCount",
      "outputs": [
        {
          "internalType": "uint256",
          "name": "",
          "type": "uint256"
        }
      ],
      "stateMutability": "view",
      "type": "function"
    },
    {
      "inputs": [
        {
          "internalType": "bytes32",
          "name": "setKey",
          "type": "bytes32"
        },
        {
          "internalType": "uint256",
          "name": "start",
          "type": "uint256"
        },
        {
          "internalType": "uint256",
          "name": "end",
          "type": "uint256"
        }
      ],
      "name": "getAddressValuesAt",
      "outputs": [
        {
          "internalType": "address[]",
          "name": "",
          "type": "address[]"
        }
      ],
      "stateMutability": "view",
      "type": "function"
    },
    {
      "inputs": [
        {
          "internalType": "bytes32",
          "name": "key",
          "type": "bytes32"
        }
      ],
      "name": "getBool",
      "outputs": [
        {
          "internalType": "bool",
          "name": "",
          "type": "bool"
        }
      ],
      "stateMutability": "view",
      "type": "function"
    },
    {
      "inputs": [
        {
          "internalType": "bytes32",
          "name": "key",
          "type": "bytes32"
        }
      ],
      "name": "getBoolArray",
      "outputs": [
        {
          "internalType": "bool[]",
          "name": "",
          "type": "bool[]"
        }
      ],
      "stateMutability": "view",
      "type": "function"
    },
    {
      "inputs": [
        {
          "internalType": "bytes32",
          "name": "key",
          "type": "bytes32"
        }
      ],
      "name": "getBytes32",
      "outputs": [
        {
          "internalType": "bytes32",
          "name": "",
          "type": "bytes32"
        }
      ],
      "stateMutability": "view",
      "type": "function"
    },
    {
      "inputs": [
        {
          "internalType": "bytes32",
          "name": "key",
          "type": "bytes32"
        }
      ],
      "name": "getBytes32Array",
      "outputs": [
        {
          "internalType": "bytes32[]",
          "name": "",
          "type": "bytes32[]"
        }
      ],
      "stateMutability": "view",
      "type": "function"
    },
    {
      "inputs": [
        {
          "internalType": "bytes32",
          "name": "setKey",
          "type": "bytes32"
        }
      ],
      "name": "getBytes32Count",
      "outputs": [
        {
          "internalType": "uint256",
          "name": "",
          "type": "uint256"
        }
      ],
      "stateMutability": "view",
      "type": "function"
    },
    {
      "inputs": [
        {
          "internalType": "bytes32",
          "name": "setKey",
          "type": "bytes32"
        },
        {
          "internalType": "uint256",
          "name": "start",
          "type": "uint256"
        },
        {
          "internalType": "uint256",
          "name": "end",
          "type": "uint256"
        }
      ],
      "name": "getBytes32ValuesAt",
      "outputs": [
        {
          "internalType": "bytes32[]",
          "name": "",
          "type": "bytes32[]"
        }
      ],
      "stateMutability": "view",
      "type": "function"
    },
    {
      "inputs": [
        {
          "internalType": "bytes32",
          "name": "key",
          "type": "bytes32"
        }
      ],
      "name": "getInt",
      "outputs": [
        {
          "internalType": "int256",
          "name": "",
          "type": "int256"
        }
      ],
      "stateMutability": "view",
      "type": "function"
    },
    {
      "inputs": [
        {
          "internalType": "bytes32",
          "name": "key",
          "type": "bytes32"
        }
      ],
      "name": "getIntArray",
      "outputs": [
        {
          "internalType": "int256[]",
          "name": "",
          "type": "int256[]"
        }
      ],
      "stateMutability": "view",
      "type": "function"
    },
    {
      "inputs": [
        {
          "internalType": "bytes32",
          "name": "key",
          "type": "bytes32"
        }
      ],
      "name": "getString",
      "outputs": [
        {
          "internalType": "string",
          "name": "",
          "type": "string"
        }
      ],
      "stateMutability": "view",
      "type": "function"
    },
    {
      "inputs": [
        {
          "internalType": "bytes32",
          "name": "key",
          "type": "bytes32"
        }
      ],
      "name": "getStringArray",
      "outputs": [
        {
          "internalType": "string[]",
          "name": "",
          "type": "string[]"
        }
      ],
      "stateMutability": "view",
      "type": "function"
    },
    {
      "inputs": [
        {
          "internalType": "bytes32",
          "name": "key",
          "type": "bytes32"
        }
      ],
      "name": "getUint",
      "outputs": [
        {
          "internalType": "uint256",
          "name": "",
          "type": "uint256"
        }
      ],
      "stateMutability": "view",
      "type": "function"
    },
    {
      "inputs": [
        {
          "internalType": "bytes32",
          "name": "key",
          "type": "bytes32"
        }
      ],
      "name": "getUintArray",
      "outputs": [
        {
          "internalType": "uint256[]",
          "name": "",
          "type": "uint256[]"
        }
      ],
      "stateMutability": "view",
      "type": "function"
    },
    {
      "inputs": [
        {
          "internalType": "bytes32",
          "name": "setKey",
          "type": "bytes32"
        }
      ],
      "name": "getUintCount",
      "outputs": [
        {
          "internalType": "uint256",
          "name": "",
          "type": "uint256"
        }
      ],
      "stateMutability": "view",
      "type": "function"
    },
    {
      "inputs": [
        {
          "internalType": "bytes32",
          "name": "setKey",
          "type": "bytes32"
        },
        {
          "internalType": "uint256",
          "name": "start",
          "type": "uint256"
        },
        {
          "internalType": "uint256",
          "name": "end",
          "type": "uint256"
        }
      ],
      "name": "getUintValuesAt",
      "outputs": [
        {
          "internalType": "uint256[]",
          "name": "",
          "type": "uint256[]"
        }
      ],
      "stateMutability": "view",
      "type": "function"
    },
    {
      "inputs": [
        {
          "internalType": "bytes32",
          "name": "",
          "type": "bytes32"
        },
        {
          "internalType": "uint256",
          "name": "",
          "type": "uint256"
        }
      ],
      "name": "intArrayValues",
      "outputs": [
        {
          "internalType": "int256",
          "name": "",
          "type": "int256"
        }
      ],
      "stateMutability": "view",
      "type": "function"
    },
    {
      "inputs": [
        {
          "internalType": "bytes32",
          "name": "",
          "type": "bytes32"
        }
      ],
      "name": "intValues",
      "outputs": [
        {
          "internalType": "int256",
          "name": "",
          "type": "int256"
        }
      ],
      "stateMutability": "view",
      "type": "function"
    },
    {
      "inputs": [
        {
          "internalType": "bytes32",
          "name": "setKey",
          "type": "bytes32"
        },
        {
          "internalType": "address",
          "name": "value",
          "type": "address"
        }
      ],
      "name": "removeAddress",
      "outputs": [],
      "stateMutability": "nonpayable",
      "type": "function"
    },
    {
      "inputs": [
        {
          "internalType": "bytes32",
          "name": "key",
          "type": "bytes32"
        }
      ],
      "name": "removeAddress",
      "outputs": [],
      "stateMutability": "nonpayable",
      "type": "function"
    },
    {
      "inputs": [
        {
          "internalType": "bytes32",
          "name": "key",
          "type": "bytes32"
        }
      ],
      "name": "removeAddressArray",
      "outputs": [],
      "stateMutability": "nonpayable",
      "type": "function"
    },
    {
      "inputs": [
        {
          "internalType": "bytes32",
          "name": "key",
          "type": "bytes32"
        }
      ],
      "name": "removeBool",
      "outputs": [],
      "stateMutability": "nonpayable",
      "type": "function"
    },
    {
      "inputs": [
        {
          "internalType": "bytes32",
          "name": "key",
          "type": "bytes32"
        }
      ],
      "name": "removeBoolArray",
      "outputs": [],
      "stateMutability": "nonpayable",
      "type": "function"
    },
    {
      "inputs": [
        {
          "internalType": "bytes32",
          "name": "setKey",
          "type": "bytes32"
        },
        {
          "internalType": "bytes32",
          "name": "value",
          "type": "bytes32"
        }
      ],
      "name": "removeBytes32",
      "outputs": [],
      "stateMutability": "nonpayable",
      "type": "function"
    },
    {
      "inputs": [
        {
          "internalType": "bytes32",
          "name": "key",
          "type": "bytes32"
        }
      ],
      "name": "removeBytes32",
      "outputs": [],
      "stateMutability": "nonpayable",
      "type": "function"
    },
    {
      "inputs": [
        {
          "internalType": "bytes32",
          "name": "key",
          "type": "bytes32"
        }
      ],
      "name": "removeBytes32Array",
      "outputs": [],
      "stateMutability": "nonpayable",
      "type": "function"
    },
    {
      "inputs": [
        {
          "internalType": "bytes32",
          "name": "key",
          "type": "bytes32"
        }
      ],
      "name": "removeInt",
      "outputs": [],
      "stateMutability": "nonpayable",
      "type": "function"
    },
    {
      "inputs": [
        {
          "internalType": "bytes32",
          "name": "key",
          "type": "bytes32"
        }
      ],
      "name": "removeIntArray",
      "outputs": [],
      "stateMutability": "nonpayable",
      "type": "function"
    },
    {
      "inputs": [
        {
          "internalType": "bytes32",
          "name": "key",
          "type": "bytes32"
        }
      ],
      "name": "removeString",
      "outputs": [],
      "stateMutability": "nonpayable",
      "type": "function"
    },
    {
      "inputs": [
        {
          "internalType": "bytes32",
          "name": "key",
          "type": "bytes32"
        }
      ],
      "name": "removeStringArray",
      "outputs": [],
      "stateMutability": "nonpayable",
      "type": "function"
    },
    {
      "inputs": [
        {
          "internalType": "bytes32",
          "name": "key",
          "type": "bytes32"
        }
      ],
      "name": "removeUint",
      "outputs": [],
      "stateMutability": "nonpayable",
      "type": "function"
    },
    {
      "inputs": [
        {
          "internalType": "bytes32",
          "name": "setKey",
          "type": "bytes32"
        },
        {
          "internalType": "uint256",
          "name": "value",
          "type": "uint256"
        }
      ],
      "name": "removeUint",
      "outputs": [],
      "stateMutability": "nonpayable",
      "type": "function"
    },
    {
      "inputs": [
        {
          "internalType": "bytes32",
          "name": "key",
          "type": "bytes32"
        }
      ],
      "name": "removeUintArray",
      "outputs": [],
      "stateMutability": "nonpayable",
      "type": "function"
    },
    {
      "inputs": [],
      "name": "roleStore",
      "outputs": [
        {
          "internalType": "contract RoleStore",
          "name": "",
          "type": "address"
        }
      ],
      "stateMutability": "view",
      "type": "function"
    },
    {
      "inputs": [
        {
          "internalType": "bytes32",
          "name": "key",
          "type": "bytes32"
        },
        {
          "internalType": "address",
          "name": "value",
          "type": "address"
        }
      ],
      "name": "setAddress",
      "outputs": [
        {
          "internalType": "address",
          "name": "",
          "type": "address"
        }
      ],
      "stateMutability": "nonpayable",
      "type": "function"
    },
    {
      "inputs": [
        {
          "internalType": "bytes32",
          "name": "key",
          "type": "bytes32"
        },
        {
          "internalType": "address[]",
          "name": "value",
          "type": "address[]"
        }
      ],
      "name": "setAddressArray",
      "outputs": [],
      "stateMutability": "nonpayable",
      "type": "function"
    },
    {
      "inputs": [
        {
          "internalType": "bytes32",
          "name": "key",
          "type": "bytes32"
        },
        {
          "internalType": "bool",
          "name": "value",
          "type": "bool"
        }
      ],
      "name": "setBool",
      "outputs": [
        {
          "internalType": "bool",
          "name": "",
          "type": "bool"
        }
      ],
      "stateMutability": "nonpayable",
      "type": "function"
    },
    {
      "inputs": [
        {
          "internalType": "bytes32",
          "name": "key",
          "type": "bytes32"
        },
        {
          "internalType": "bool[]",
          "name": "value",
          "type": "bool[]"
        }
      ],
      "name": "setBoolArray",
      "outputs": [],
      "stateMutability": "nonpayable",
      "type": "function"
    },
    {
      "inputs": [
        {
          "internalType": "bytes32",
          "name": "key",
          "type": "bytes32"
        },
        {
          "internalType": "bytes32",
          "name": "value",
          "type": "bytes32"
        }
      ],
      "name": "setBytes32",
      "outputs": [
        {
          "internalType": "bytes32",
          "name": "",
          "type": "bytes32"
        }
      ],
      "stateMutability": "nonpayable",
      "type": "function"
    },
    {
      "inputs": [
        {
          "internalType": "bytes32",
          "name": "key",
          "type": "bytes32"
        },
        {
          "internalType": "bytes32[]",
          "name": "value",
          "type": "bytes32[]"
        }
      ],
      "name": "setBytes32Array",
      "outputs": [],
      "stateMutability": "nonpayable",
      "type": "function"
    },
    {
      "inputs": [
        {
          "internalType": "bytes32",
          "name": "key",
          "type": "bytes32"
        },
        {
          "internalType": "int256",
          "name": "value",
          "type": "int256"
        }
      ],
      "name": "setInt",
      "outputs": [
        {
          "internalType": "int256",
          "name": "",
          "type": "int256"
        }
      ],
      "stateMutability": "nonpayable",
      "type": "function"
    },
    {
      "inputs": [
        {
          "internalType": "bytes32",
          "name": "key",
          "type": "bytes32"
        },
        {
          "internalType": "int256[]",
          "name": "value",
          "type": "int256[]"
        }
      ],
      "name": "setIntArray",
      "outputs": [],
      "stateMutability": "nonpayable",
      "type": "function"
    },
    {
      "inputs": [
        {
          "internalType": "bytes32",
          "name": "key",
          "type": "bytes32"
        },
        {
          "internalType": "string",
          "name": "value",
          "type": "string"
        }
      ],
      "name": "setString",
      "outputs": [
        {
          "internalType": "string",
          "name": "",
          "type": "string"
        }
      ],
      "stateMutability": "nonpayable",
      "type": "function"
    },
    {
      "inputs": [
        {
          "internalType": "bytes32",
          "name": "key",
          "type": "bytes32"
        },
        {
          "internalType": "string[]",
          "name": "value",
          "type": "string[]"
        }
      ],
      "name": "setStringArray",
      "outputs": [],
      "stateMutability": "nonpayable",
      "type": "function"
    },
    {
      "inputs": [
        {
          "internalType": "bytes32",
          "name": "key",
          "type": "bytes32"
        },
        {
          "internalType": "uint256",
          "name": "value",
          "type": "uint256"
        }
      ],
      "name": "setUint",
      "outputs": [
        {
          "internalType": "uint256",
          "name": "",
          "type": "uint256"
        }
      ],
      "stateMutability": "nonpayable",
      "type": "function"
    },
    {
      "inputs": [
        {
          "internalType": "bytes32",
          "name": "key",
          "type": "bytes32"
        },
        {
          "internalType": "uint256[]",
          "name": "value",
          "type": "uint256[]"
        }
      ],
      "name": "setUintArray",
      "outputs": [],
      "stateMutability": "nonpayable",
      "type": "function"
    },
    {
      "inputs": [
        {
          "internalType": "bytes32",
          "name": "",
          "type": "bytes32"
        },
        {
          "internalType": "uint256",
          "name": "",
          "type": "uint256"
        }
      ],
      "name": "stringArrayValues",
      "outputs": [
        {
          "internalType": "string",
          "name": "",
          "type": "string"
        }
      ],
      "stateMutability": "view",
      "type": "function"
    },
    {
      "inputs": [
        {
          "internalType": "bytes32",
          "name": "",
          "type": "bytes32"
        }
      ],
      "name": "stringValues",
      "outputs": [
        {
          "internalType": "string",
          "name": "",
          "type": "string"
        }
      ],
      "stateMutability": "view",
      "type": "function"
    },
    {
      "inputs": [
        {
          "internalType": "bytes32",
          "name": "",
          "type": "bytes32"
        },
        {
          "internalType": "uint256",
          "name": "",
          "type": "uint256"
        }
      ],
      "name": "uintArrayValues",
      "outputs": [
        {
          "internalType": "uint256",
          "name": "",
          "type": "uint256"
        }
      ],
      "stateMutability": "view",
      "type": "function"
    },
    {
      "inputs": [
        {
          "internalType": "bytes32",
          "name": "",
          "type": "bytes32"
        }
      ],
      "name": "uintValues",
      "outputs": [
        {
          "internalType": "uint256",
          "name": "",
          "type": "uint256"
        }
      ],
      "stateMutability": "view",
      "type": "function"
    }
  ],
  "transactionHash": "0xdf28cccc663633e97c98e6a1dc78801bb123f1bc0f1d802276ed22b37e44fbb0",
  "args": [
    "0xe8857aac323c4ADE513fe990e6373670c2A45E27"
  ],
  "numDeployments": 1,
  "solcInputHash": "d92b52984e1ffc99f47371b2a20df6bb",
  "bytecode": "0x60a06040523480156200001157600080fd5b506040516200290f3803806200290f833981016040819052620000349162000046565b6001600160a01b031660805262000078565b6000602082840312156200005957600080fd5b81516001600160a01b03811681146200007157600080fd5b9392505050565b6080516128746200009b60003960008181610523015261176901526128746000f3fe608060405234801561001057600080fd5b50600436106103325760003560e01c80639921c3cc116101b05780639921c3cc146106bf5780639faf6fb6146106d25780639fe7ac12146106e5578063a6ed563e146106f8578063a9fcf76b14610718578063abfdcced1461072b578063adb353dc1461073e578063b348e63914610751578063b8320a0814610764578063bd02d0f514610777578063be43caa314610797578063bf498dd3146107aa578063bf7f035a146107bd578063c1dc9182146107d0578063c4f00fde146107e3578063c769d1a1146107f6578063c80f4c6214610809578063ca446dd91461081c578063cc50eadd1461082f578063cf6a872214610842578063d38eebc714610855578063d52852af14610875578063dc97d96214610895578063dd031997146108b5578063e208a70d146108c8578063e2a4853a146108db578063e4e36c4e146108ee578063e62461ce14610901578063e7e4148e14610914578063e98aabc114610927578063ec672cf61461093a578063f069052a1461094d578063f15caeac14610960578063f3903b9f14610973578063f51fc0d91461098657600080fd5b806301677da214610337578063065f21a714610360578063116bb9291461038157806321f8a721146103a157806322538dae146103e257806322f874641461040b578063260048461461041e5780632d2899b614610433578063310b88821461045357806332f85bbf1461047657806335d4d4071461048957806335ea80591461049c5780633dbacd1a146104af5780633e49bed0146104c257806342c3bd96146104d557806344a242b1146104e8578063499ea50e1461050b5780634a4a7b041461051e5780634e91db08146105455780635948f733146105585780635eb07dbd146105785780636339734d1461058b57806369721d411461059e5780636e899550146105b15780636fae54f0146105d15780637026d42c146105e4578063743df325146105f75780637ae1cfca1461061757806380aacdcd1461063a57806386ac6bdf1461064d57806388021a72146106605780638ca498b01461067357806391d4403c1461068657806393266f9a14610699578063986e791a146106ac575b600080fd5b61034a610345366004611f52565b610999565b6040516103579190611fb1565b60405180910390f35b61037361036e366004611f52565b610a85565b604051908152602001610357565b61039461038f366004611f52565b610aa2565b6040516103579190612013565b6103ca6103af366004611f52565b6000908152600260205260409020546001600160a01b031690565b6040516001600160a01b039091168152602001610357565b6103ca6103f0366004611f52565b6002602052600090815260409020546001600160a01b031681565b6103ca610419366004612059565b610b24565b61043161042c3660046120e4565b610b5c565b005b610446610441366004611f52565b610bd0565b6040516103579190612185565b610466610461366004612059565b610c31565b6040519015158152602001610357565b61037361048436600461222c565b610c50565b610431610497366004612289565b610ce1565b6103736104aa366004611f52565b610d12565b6103736104bd366004612059565b610d29565b6103736104d0366004612059565b610d72565b6104316104e3366004611f52565b610d9c565b6104666104f6366004611f52565b60036020526000908152604090205460ff1681565b610431610519366004611f52565b610dbf565b6103ca7f000000000000000000000000000000000000000000000000000000000000000081565b610373610553366004612059565b610deb565b61056b610566366004611f52565b610e15565b604051610357919061231f565b6104316105863660046120e4565b610e80565b610373610599366004612059565b610eb1565b6104316105ac36600461237c565b610ee2565b6105c46105bf3660046123a8565b610f0c565b60405161035791906123ee565b6103736105df366004612059565b610f40565b6104466105f2366004612401565b610f88565b610373610605366004611f52565b60016020526000908152604090205481565b610466610625366004611f52565b60009081526003602052604090205460ff1690565b610466610648366004612059565b610fac565b61044661065b366004611f52565b610fef565b61043161066e36600461242d565b61104f565b610373610681366004612059565b611080565b610466610694366004612059565b6110e5565b6104316106a7366004612059565b6110fd565b6105c46106ba366004611f52565b611127565b6104316106cd366004612059565b6111bf565b6104316106e0366004611f52565b6111e9565b6104316106f3366004611f52565b611219565b610373610706366004611f52565b60009081526005602052604090205490565b6104316107263660046120e4565b611243565b6104666107393660046124e9565b611274565b61043161074c366004612059565b6112a7565b61043161075f36600461237c565b6112d1565b6105c4610772366004612059565b6112fb565b610373610785366004611f52565b60009081526020819052604090205490565b6104316107a5366004611f52565b6113b4565b6103736107b8366004612059565b6113dd565b6104316107cb366004611f52565b6113f9565b6104316107de366004611f52565b611422565b6103736107f1366004612059565b61144b565b61046661080436600461237c565b611467565b610431610817366004612059565b61147f565b6103ca61082a36600461237c565b6114a9565b61043161083d366004611f52565b6114e9565b610431610850366004611f52565b611512565b610373610863366004611f52565b60006020819052908152604090205481565b610373610883366004611f52565b60056020526000908152604090205481565b6103736108a3366004611f52565b60009081526001602052604090205490565b6104466108c3366004611f52565b611535565b6104316108d6366004611f52565b611595565b6103736108e9366004612059565b6115be565b6103736108fc366004612059565b6115e8565b61043161090f366004611f52565b611616565b61056b610922366004612401565b611639565b610373610935366004612059565b611655565b610431610948366004612519565b61169d565b61044661095b366004612401565b6116ce565b6105c461096e366004611f52565b6116ea565b610373610981366004611f52565b611703565b610431610994366004611f52565b61171a565b6060600a6000838152602001908152602001600020805480602002602001604051908101604052809291908181526020016000905b82821015610a7a5783829060005260206000200180546109ed906125ad565b80601f0160208091040260200160405190810160405280929190818152602001828054610a19906125ad565b8015610a665780601f10610a3b57610100808354040283529160200191610a66565b820191906000526020600020905b815481529060010190602001808311610a4957829003601f168201915b5050505050815260200190600101906109ce565b505050509050919050565b6000818152600e60205260408120610a9c90611743565b92915050565b600081815260096020908152604091829020805483518184028101840190945280845260609392830182828015610b1857602002820191906000526020600020906000905b825461010083900a900460ff161515815260206001928301818104948501949093039092029101808411610ae75790505b50505050509050919050565b60086020528160005260406000208181548110610b4057600080fd5b6000918252602090912001546001600160a01b03169150829050565b610bac604051602001610b6e906125e7565b604051602081830303815290604052805190602001206040518060400160405280600a81526020016921a7a72a2927a62622a960b11b81525061174d565b6000828152600b602090815260409091208251610bcb92840190611cfb565b505050565b600081815260076020908152604091829020805483518184028101840190945280845260609392830182828015610b1857602002820191906000526020600020905b815481526020019060010190808311610c125750505050509050919050565b6000828152600e60205260408120610c499083611801565b9392505050565b6000610c64604051602001610b6e906125e7565b6000848152602081905260408120549084128015610c91575080610c8f610c8a86612621565b61180d565b115b15610cb9578260405162461bcd60e51b8152600401610cb091906123ee565b60405180910390fd5b6000610cc58286611863565b6000878152602081905260409020819055925050509392505050565b610cf3604051602001610b6e906125e7565b60008281526009602090815260409091208251610bcb92840190611d42565b6000818152600d60205260408120610a9c90611743565b6000610d3d604051602001610b6e906125e7565b60008381526020819052604081205490610d57848361263d565b60008681526020819052604090208190559250505092915050565b6000610d86604051602001610b6e906125e7565b5060009182526001602052604090912081905590565b610dae604051602001610b6e906125e7565b600090815260208190526040812055565b610dd1604051602001610b6e906125e7565b6000818152600760205260408120610de891611de2565b50565b6000610dff604051602001610b6e906125e7565b5060009182526005602052604090912081905590565b600081815260086020908152604091829020805483518184028101840190945280845260609392830182828015610b1857602002820191906000526020600020905b81546001600160a01b03168152600190910190602001808311610e575750505050509050919050565b610e92604051602001610b6e906125e7565b60008281526006602090815260409091208251610bcb92840190611cfb565b60076020528160005260406000208181548110610ecd57600080fd5b90600052602060002001600091509150505481565b610ef4604051602001610b6e906125e7565b6000828152600d60205260409020610bcb908261189a565b6060610f20604051602001610b6e906125e7565b6000838152600460205260409020610f38838261269e565b509092915050565b6000610f54604051602001610b6e906125e7565b600083815260016020526040812054610f6e90849061275d565b600085815260016020526040902081905591505092915050565b6000838152600e60205260409020606090610fa49084846118af565b949350505050565b60096020528160005260406000208181548110610fc857600080fd5b9060005260206000209060209182820401919006915091509054906101000a900460ff1681565b600081815260066020908152604091829020805483518184028101840190945280845260609392830182828015610b185760200282019190600052602060002090815481526020019060010190808311610c125750505050509050919050565b611061604051602001610b6e906125e7565b6000828152600a602090815260409091208251610bcb92840190611e00565b6000611094604051602001610b6e906125e7565b60008381526020819052604081205490831280156110bc5750806110ba610c8a85612621565b115b156110d95750506000828152602081905260408120819055610a9c565b6000610d578285611863565b6000828152600c60205260408120610c499083611801565b61110f604051602001610b6e906125e7565b6000828152600e60205260409020610bcb9082611993565b6000818152600460205260409020805460609190611144906125ad565b80601f0160208091040260200160405190810160405280929190818152602001828054611170906125ad565b8015610b185780601f1061119257610100808354040283529160200191610b18565b820191906000526020600020905b8154815290600101906020018083116111a05750939695505050505050565b6111d1604051602001610b6e906125e7565b6000828152600c60205260409020610bcb9082611993565b6111fb604051602001610b6e906125e7565b600090815260026020526040902080546001600160a01b0319169055565b61122b604051602001610b6e906125e7565b6000908152600360205260409020805460ff19169055565b611255604051602001610b6e906125e7565b60008281526007602090815260409091208251610bcb92840190611cfb565b6000611288604051602001610b6e906125e7565b50600091825260036020526040909120805460ff191682151517905590565b6112b9604051602001610b6e906125e7565b6000828152600e60205260409020610bcb908261199f565b6112e3604051602001610b6e906125e7565b6000828152600d60205260409020610bcb90826119ab565b600a602052816000526040600020818154811061131757600080fd5b90600052602060002001600091509150508054611333906125ad565b80601f016020809104026020016040519081016040528092919081815260200182805461135f906125ad565b80156113ac5780601f10611381576101008083540402835291602001916113ac565b820191906000526020600020905b81548152906001019060200180831161138f57829003601f168201915b505050505081565b6113c6604051602001610b6e906125e7565b6000818152600660205260408120610de891611de2565b600b6020528160005260406000208181548110610ecd57600080fd5b61140b604051602001610b6e906125e7565b6000818152600b60205260408120610de891611de2565b611434604051602001610b6e906125e7565b6000818152600860205260408120610de891611de2565b60066020528160005260406000208181548110610ecd57600080fd5b6000828152600d60205260408120610c4990836119c0565b611491604051602001610b6e906125e7565b6000828152600c60205260409020610bcb908261199f565b60006114bd604051602001610b6e906125e7565b5060009182526002602052604090912080546001600160a01b0319166001600160a01b03831617905590565b6114fb604051602001610b6e906125e7565b6000818152600460205260408120610de891611e52565b611524604051602001610b6e906125e7565b600090815260056020526040812055565b6000818152600b6020908152604091829020805483518184028101840190945280845260609392830182828015610b185760200282019190600052602060002090815481526020019060010190808311610c125750505050509050919050565b6115a7604051602001610b6e906125e7565b6000818152600a60205260408120610de891611e8c565b60006115d2604051602001610b6e906125e7565b5060009182526020829052604090912081905590565b60006115fc604051602001610b6e906125e7565b600083815260016020526040812054610f6e90849061277d565b611628604051602001610b6e906125e7565b600090815260016020526040812055565b6000838152600d60205260409020606090610fa49084846119d5565b6000611669604051602001610b6e906125e7565b6000838152602081905260408120546116839084906127a5565b600085815260208190526040902081905591505092915050565b6116af604051602001610b6e906125e7565b60008281526008602090815260409091208251610bcb92840190611eaa565b6000838152600c60205260409020606090610fa4908484611a98565b60046020526000908152604090208054611333906125ad565b6000818152600c60205260408120610a9c90611743565b61172c604051602001610b6e906125e7565b6000818152600960205260408120610de891611eff565b6000610a9c825490565b60405163ac4ab3fb60e01b8152336004820152602481018390527f00000000000000000000000000000000000000000000000000000000000000006001600160a01b03169063ac4ab3fb90604401602060405180830381865afa1580156117b8573d6000803e3d6000fd5b505050506040513d601f19601f820116820180604052508101906117dc91906127b8565b6117fd57338160405163a35b150b60e01b8152600401610cb09291906127d5565b5050565b6000610c498383611b4e565b60008082121561185f5760405162461bcd60e51b815260206004820181905260248201527f53616665436173743a2076616c7565206d75737420626520706f7369746976656044820152606401610cb0565b5090565b6000808213156118875761187682611b66565b611880908461263d565b9050610a9c565b61189082611b66565b610c4990846127a5565b6000610c49836001600160a01b038416611b79565b60606118ba84611743565b83106118d55750604080516000815260208101909152610c49565b60006118e085611743565b9050808311156118ee578092505b60006118fa85856127a5565b6001600160401b038111156119115761191161207b565b60405190808252806020026020018201604052801561193a578160200160208202803683370190505b509050845b84811015611989576119518782611c73565b8261195c88846127a5565b8151811061196c5761196c6127f9565b6020908102919091010152806119818161280f565b91505061193f565b5095945050505050565b6000610c498383611b79565b6000610c498383611c7f565b6000610c49836001600160a01b038416611c7f565b6000610c49836001600160a01b038416611b4e565b606060006119e285611743565b9050808311156119f0578092505b60006119fc85856127a5565b6001600160401b03811115611a1357611a1361207b565b604051908082528060200260200182016040528015611a3c578160200160208202803683370190505b509050845b8481101561198957611a538782611c73565b82611a5e88846127a5565b81518110611a6e57611a6e6127f9565b6001600160a01b039092166020928302919091019091015280611a908161280f565b915050611a41565b60606000611aa585611743565b905080831115611ab3578092505b6000611abf85856127a5565b6001600160401b03811115611ad657611ad661207b565b604051908082528060200260200182016040528015611aff578160200160208202803683370190505b509050845b8481101561198957611b168782611cc9565b82611b2188846127a5565b81518110611b3157611b316127f9565b602090810291909101015280611b468161280f565b915050611b04565b60009081526001919091016020526040902054151590565b60008082121561185f5781600003610a9c565b60008181526001830160205260408120548015611c62576000611b9d6001836127a5565b8554909150600090611bb1906001906127a5565b9050818114611c16576000866000018281548110611bd157611bd16127f9565b9060005260206000200154905080876000018481548110611bf457611bf46127f9565b6000918252602080832090910192909255918252600188019052604090208390555b8554869080611c2757611c27612828565b600190038181906000526020600020016000905590558560010160008681526020019081526020016000206000905560019350505050610a9c565b6000915050610a9c565b5092915050565b6000610c498383611cd1565b6000611c8b8383611b4e565b611cc157508154600181810184556000848152602080822090930184905584548482528286019093526040902091909155610a9c565b506000610a9c565b6000610c4983835b6000826000018281548110611ce857611ce86127f9565b9060005260206000200154905092915050565b828054828255906000526020600020908101928215611d36579160200282015b82811115611d36578251825591602001919060010190611d1b565b5061185f929150611f20565b82805482825590600052602060002090601f01602090048101928215611d365791602002820160005b83821115611da857835183826101000a81548160ff0219169083151502179055509260200192600101602081600001049283019260010302611d6b565b8015611dd55782816101000a81549060ff0219169055600101602081600001049283019260010302611da8565b505061185f929150611f20565b5080546000825590600052602060002090810190610de89190611f20565b828054828255906000526020600020908101928215611e46579160200282015b82811115611e465782518290611e36908261269e565b5091602001919060010190611e20565b5061185f929150611f35565b508054611e5e906125ad565b6000825580601f10611e6e575050565b601f016020900490600052602060002090810190610de89190611f20565b5080546000825590600052602060002090810190610de89190611f35565b828054828255906000526020600020908101928215611d36579160200282015b82811115611d3657825182546001600160a01b0319166001600160a01b03909116178255602090920191600190910190611eca565b50805460008255601f016020900490600052602060002090810190610de891905b5b8082111561185f5760008155600101611f21565b8082111561185f576000611f498282611e52565b50600101611f35565b600060208284031215611f6457600080fd5b5035919050565b6000815180845260005b81811015611f9157602081850181015186830182015201611f75565b506000602082860101526020601f19601f83011685010191505092915050565b6000602080830181845280855180835260408601915060408160051b870101925083870160005b8281101561200657603f19888603018452611ff4858351611f6b565b94509285019290850190600101611fd8565b5092979650505050505050565b6020808252825182820181905260009190848201906040850190845b8181101561204d57835115158352928401929184019160010161202f565b50909695505050505050565b6000806040838503121561206c57600080fd5b50508035926020909101359150565b634e487b7160e01b600052604160045260246000fd5b604051601f8201601f191681016001600160401b03811182821017156120b9576120b961207b565b604052919050565b60006001600160401b038211156120da576120da61207b565b5060051b60200190565b600080604083850312156120f757600080fd5b823591506020808401356001600160401b0381111561211557600080fd5b8401601f8101861361212657600080fd5b8035612139612134826120c1565b612091565b81815260059190911b8201830190838101908883111561215857600080fd5b928401925b828410156121765783358252928401929084019061215d565b80955050505050509250929050565b6020808252825182820181905260009190848201906040850190845b8181101561204d578351835292840192918401916001016121a1565b600082601f8301126121ce57600080fd5b81356001600160401b038111156121e7576121e761207b565b6121fa601f8201601f1916602001612091565b81815284602083860101111561220f57600080fd5b816020850160208301376000918101602001919091529392505050565b60008060006060848603121561224157600080fd5b833592506020840135915060408401356001600160401b0381111561226557600080fd5b612271868287016121bd565b9150509250925092565b8015158114610de857600080fd5b6000806040838503121561229c57600080fd5b823591506020808401356001600160401b038111156122ba57600080fd5b8401601f810186136122cb57600080fd5b80356122d9612134826120c1565b81815260059190911b820183019083810190888311156122f857600080fd5b928401925b828410156121765783356123108161227b565b825292840192908401906122fd565b6020808252825182820181905260009190848201906040850190845b8181101561204d5783516001600160a01b03168352928401929184019160010161233b565b80356001600160a01b038116811461237757600080fd5b919050565b6000806040838503121561238f57600080fd5b8235915061239f60208401612360565b90509250929050565b600080604083850312156123bb57600080fd5b8235915060208301356001600160401b038111156123d857600080fd5b6123e4858286016121bd565b9150509250929050565b602081526000610c496020830184611f6b565b60008060006060848603121561241657600080fd5b505081359360208301359350604090920135919050565b6000806040838503121561244057600080fd5b823591506020808401356001600160401b038082111561245f57600080fd5b818601915086601f83011261247357600080fd5b8135612481612134826120c1565b81815260059190911b830184019084810190898311156124a057600080fd5b8585015b838110156124d8578035858111156124bc5760008081fd5b6124ca8c89838a01016121bd565b8452509186019186016124a4565b508096505050505050509250929050565b600080604083850312156124fc57600080fd5b82359150602083013561250e8161227b565b809150509250929050565b6000806040838503121561252c57600080fd5b823591506020808401356001600160401b0381111561254a57600080fd5b8401601f8101861361255b57600080fd5b8035612569612134826120c1565b81815260059190911b8201830190838101908883111561258857600080fd5b928401925b828410156121765761259e84612360565b8252928401929084019061258d565b600181811c908216806125c157607f821691505b6020821081036125e157634e487b7160e01b600052602260045260246000fd5b50919050565b6020808252600a908201526921a7a72a2927a62622a960b11b604082015260600190565b634e487b7160e01b600052601160045260246000fd5b6000600160ff1b82016126365761263661260b565b5060000390565b80820180821115610a9c57610a9c61260b565b601f821115610bcb57600081815260208120601f850160051c810160208610156126775750805b601f850160051c820191505b8181101561269657828155600101612683565b505050505050565b81516001600160401b038111156126b7576126b761207b565b6126cb816126c584546125ad565b84612650565b602080601f83116001811461270057600084156126e85750858301515b600019600386901b1c1916600185901b178555612696565b600085815260208120601f198616915b8281101561272f57888601518255948401946001909101908401612710565b508582101561274d5787850151600019600388901b60f8161c191681555b5050505050600190811b01905550565b8181036000831280158383131683831282161715611c6c57611c6c61260b565b808201828112600083128015821682158216171561279d5761279d61260b565b505092915050565b81810381811115610a9c57610a9c61260b565b6000602082840312156127ca57600080fd5b8151610c498161227b565b6001600160a01b0383168152604060208201819052600090610fa490830184611f6b565b634e487b7160e01b600052603260045260246000fd5b6000600182016128215761282161260b565b5060010190565b634e487b7160e01b600052603160045260246000fdfea264697066735822122095f46b40e2e2b0072c611fee6916f0b98d58584530e74c8ec15db537e04cf9cc64736f6c63430008120033",
  "libraries": {
    "GasUtils": "0xfb2dAeC48A3Dd6aAd2F0EA175457aDDeAD1AF6A2",
    "OrderUtils": "0x36E6F5D7c265ae455CafD1c669a307b366956e38",
    "AdlUtils": "0xeCFF5A1F1Bf6781EFfB1C830560cd8c642c252C0",
    "PositionStoreUtils": "0xCe34EfB0D2FB37EFE135904B46A6E686f1531915",
    "OrderStoreUtils": "0xD5df949fb4a18eF15C57954E5c1962B30c0a863c"
  },
  "devdoc": {
    "kind": "dev",
    "methods": {},
    "version": 1
  },
  "userdoc": {
    "kind": "user",
    "methods": {},
    "version": 1
  },
  "storageLayout": {
    "storage": [
      {
        "astId": 14889,
        "contract": "contracts/data/DataStore.sol:DataStore",
        "label": "uintValues",
        "offset": 0,
        "slot": "0",
        "type": "t_mapping(t_bytes32,t_uint256)"
      },
      {
        "astId": 14893,
        "contract": "contracts/data/DataStore.sol:DataStore",
        "label": "intValues",
        "offset": 0,
        "slot": "1",
        "type": "t_mapping(t_bytes32,t_int256)"
      },
      {
        "astId": 14897,
        "contract": "contracts/data/DataStore.sol:DataStore",
        "label": "addressValues",
        "offset": 0,
        "slot": "2",
        "type": "t_mapping(t_bytes32,t_address)"
      },
      {
        "astId": 14901,
        "contract": "contracts/data/DataStore.sol:DataStore",
        "label": "boolValues",
        "offset": 0,
        "slot": "3",
        "type": "t_mapping(t_bytes32,t_bool)"
      },
      {
        "astId": 14905,
        "contract": "contracts/data/DataStore.sol:DataStore",
        "label": "stringValues",
        "offset": 0,
        "slot": "4",
        "type": "t_mapping(t_bytes32,t_string_storage)"
      },
      {
        "astId": 14909,
        "contract": "contracts/data/DataStore.sol:DataStore",
        "label": "bytes32Values",
        "offset": 0,
        "slot": "5",
        "type": "t_mapping(t_bytes32,t_bytes32)"
      },
      {
        "astId": 14914,
        "contract": "contracts/data/DataStore.sol:DataStore",
        "label": "uintArrayValues",
        "offset": 0,
        "slot": "6",
        "type": "t_mapping(t_bytes32,t_array(t_uint256)dyn_storage)"
      },
      {
        "astId": 14919,
        "contract": "contracts/data/DataStore.sol:DataStore",
        "label": "intArrayValues",
        "offset": 0,
        "slot": "7",
        "type": "t_mapping(t_bytes32,t_array(t_int256)dyn_storage)"
      },
      {
        "astId": 14924,
        "contract": "contracts/data/DataStore.sol:DataStore",
        "label": "addressArrayValues",
        "offset": 0,
        "slot": "8",
        "type": "t_mapping(t_bytes32,t_array(t_address)dyn_storage)"
      },
      {
        "astId": 14929,
        "contract": "contracts/data/DataStore.sol:DataStore",
        "label": "boolArrayValues",
        "offset": 0,
        "slot": "9",
        "type": "t_mapping(t_bytes32,t_array(t_bool)dyn_storage)"
      },
      {
        "astId": 14934,
        "contract": "contracts/data/DataStore.sol:DataStore",
        "label": "stringArrayValues",
        "offset": 0,
        "slot": "10",
        "type": "t_mapping(t_bytes32,t_array(t_string_storage)dyn_storage)"
      },
      {
        "astId": 14939,
        "contract": "contracts/data/DataStore.sol:DataStore",
        "label": "bytes32ArrayValues",
        "offset": 0,
        "slot": "11",
        "type": "t_mapping(t_bytes32,t_array(t_bytes32)dyn_storage)"
      },
      {
        "astId": 14944,
        "contract": "contracts/data/DataStore.sol:DataStore",
        "label": "bytes32Sets",
        "offset": 0,
        "slot": "12",
        "type": "t_mapping(t_bytes32,t_struct(Bytes32Set)6365_storage)"
      },
      {
        "astId": 14949,
        "contract": "contracts/data/DataStore.sol:DataStore",
        "label": "addressSets",
        "offset": 0,
        "slot": "13",
        "type": "t_mapping(t_bytes32,t_struct(AddressSet)6486_storage)"
      },
      {
        "astId": 14954,
        "contract": "contracts/data/DataStore.sol:DataStore",
        "label": "uintSets",
        "offset": 0,
        "slot": "14",
        "type": "t_mapping(t_bytes32,t_struct(UintSet)6643_storage)"
      }
    ],
    "types": {
      "t_address": {
        "encoding": "inplace",
        "label": "address",
        "numberOfBytes": "20"
      },
      "t_array(t_address)dyn_storage": {
        "base": "t_address",
        "encoding": "dynamic_array",
        "label": "address[]",
        "numberOfBytes": "32"
      },
      "t_array(t_bool)dyn_storage": {
        "base": "t_bool",
        "encoding": "dynamic_array",
        "label": "bool[]",
        "numberOfBytes": "32"
      },
      "t_array(t_bytes32)dyn_storage": {
        "base": "t_bytes32",
        "encoding": "dynamic_array",
        "label": "bytes32[]",
        "numberOfBytes": "32"
      },
      "t_array(t_int256)dyn_storage": {
        "base": "t_int256",
        "encoding": "dynamic_array",
        "label": "int256[]",
        "numberOfBytes": "32"
      },
      "t_array(t_string_storage)dyn_storage": {
        "base": "t_string_storage",
        "encoding": "dynamic_array",
        "label": "string[]",
        "numberOfBytes": "32"
      },
      "t_array(t_uint256)dyn_storage": {
        "base": "t_uint256",
        "encoding": "dynamic_array",
        "label": "uint256[]",
        "numberOfBytes": "32"
      },
      "t_bool": {
        "encoding": "inplace",
        "label": "bool",
        "numberOfBytes": "1"
      },
      "t_bytes32": {
        "encoding": "inplace",
        "label": "bytes32",
        "numberOfBytes": "32"
      },
      "t_int256": {
        "encoding": "inplace",
        "label": "int256",
        "numberOfBytes": "32"
      },
      "t_mapping(t_bytes32,t_address)": {
        "encoding": "mapping",
        "key": "t_bytes32",
        "label": "mapping(bytes32 => address)",
        "numberOfBytes": "32",
        "value": "t_address"
      },
      "t_mapping(t_bytes32,t_array(t_address)dyn_storage)": {
        "encoding": "mapping",
        "key": "t_bytes32",
        "label": "mapping(bytes32 => address[])",
        "numberOfBytes": "32",
        "value": "t_array(t_address)dyn_storage"
      },
      "t_mapping(t_bytes32,t_array(t_bool)dyn_storage)": {
        "encoding": "mapping",
        "key": "t_bytes32",
        "label": "mapping(bytes32 => bool[])",
        "numberOfBytes": "32",
        "value": "t_array(t_bool)dyn_storage"
      },
      "t_mapping(t_bytes32,t_array(t_bytes32)dyn_storage)": {
        "encoding": "mapping",
        "key": "t_bytes32",
        "label": "mapping(bytes32 => bytes32[])",
        "numberOfBytes": "32",
        "value": "t_array(t_bytes32)dyn_storage"
      },
      "t_mapping(t_bytes32,t_array(t_int256)dyn_storage)": {
        "encoding": "mapping",
        "key": "t_bytes32",
        "label": "mapping(bytes32 => int256[])",
        "numberOfBytes": "32",
        "value": "t_array(t_int256)dyn_storage"
      },
      "t_mapping(t_bytes32,t_array(t_string_storage)dyn_storage)": {
        "encoding": "mapping",
        "key": "t_bytes32",
        "label": "mapping(bytes32 => string[])",
        "numberOfBytes": "32",
        "value": "t_array(t_string_storage)dyn_storage"
      },
      "t_mapping(t_bytes32,t_array(t_uint256)dyn_storage)": {
        "encoding": "mapping",
        "key": "t_bytes32",
        "label": "mapping(bytes32 => uint256[])",
        "numberOfBytes": "32",
        "value": "t_array(t_uint256)dyn_storage"
      },
      "t_mapping(t_bytes32,t_bool)": {
        "encoding": "mapping",
        "key": "t_bytes32",
        "label": "mapping(bytes32 => bool)",
        "numberOfBytes": "32",
        "value": "t_bool"
      },
      "t_mapping(t_bytes32,t_bytes32)": {
        "encoding": "mapping",
        "key": "t_bytes32",
        "label": "mapping(bytes32 => bytes32)",
        "numberOfBytes": "32",
        "value": "t_bytes32"
      },
      "t_mapping(t_bytes32,t_int256)": {
        "encoding": "mapping",
        "key": "t_bytes32",
        "label": "mapping(bytes32 => int256)",
        "numberOfBytes": "32",
        "value": "t_int256"
      },
      "t_mapping(t_bytes32,t_string_storage)": {
        "encoding": "mapping",
        "key": "t_bytes32",
        "label": "mapping(bytes32 => string)",
        "numberOfBytes": "32",
        "value": "t_string_storage"
      },
      "t_mapping(t_bytes32,t_struct(AddressSet)6486_storage)": {
        "encoding": "mapping",
        "key": "t_bytes32",
        "label": "mapping(bytes32 => struct EnumerableSet.AddressSet)",
        "numberOfBytes": "32",
        "value": "t_struct(AddressSet)6486_storage"
      },
      "t_mapping(t_bytes32,t_struct(Bytes32Set)6365_storage)": {
        "encoding": "mapping",
        "key": "t_bytes32",
        "label": "mapping(bytes32 => struct EnumerableSet.Bytes32Set)",
        "numberOfBytes": "32",
        "value": "t_struct(Bytes32Set)6365_storage"
      },
      "t_mapping(t_bytes32,t_struct(UintSet)6643_storage)": {
        "encoding": "mapping",
        "key": "t_bytes32",
        "label": "mapping(bytes32 => struct EnumerableSet.UintSet)",
        "numberOfBytes": "32",
        "value": "t_struct(UintSet)6643_storage"
      },
      "t_mapping(t_bytes32,t_uint256)": {
        "encoding": "mapping",
        "key": "t_bytes32",
        "label": "mapping(bytes32 => uint256)",
        "numberOfBytes": "32",
        "value": "t_uint256"
      },
      "t_string_storage": {
        "encoding": "bytes",
        "label": "string",
        "numberOfBytes": "32"
      },
      "t_struct(AddressSet)6486_storage": {
        "encoding": "inplace",
        "label": "struct EnumerableSet.AddressSet",
        "members": [
          {
            "astId": 6485,
            "contract": "contracts/data/DataStore.sol:DataStore",
            "label": "_inner",
            "offset": 0,
            "slot": "0",
            "type": "t_struct(Set)6171_storage"
          }
        ],
        "numberOfBytes": "64"
      },
      "t_struct(Bytes32Set)6365_storage": {
        "encoding": "inplace",
        "label": "struct EnumerableSet.Bytes32Set",
        "members": [
          {
            "astId": 6364,
            "contract": "contracts/data/DataStore.sol:DataStore",
            "label": "_inner",
            "offset": 0,
            "slot": "0",
            "type": "t_struct(Set)6171_storage"
          }
        ],
        "numberOfBytes": "64"
      },
      "t_struct(Set)6171_storage": {
        "encoding": "inplace",
        "label": "struct EnumerableSet.Set",
        "members": [
          {
            "astId": 6166,
            "contract": "contracts/data/DataStore.sol:DataStore",
            "label": "_values",
            "offset": 0,
            "slot": "0",
            "type": "t_array(t_bytes32)dyn_storage"
          },
          {
            "astId": 6170,
            "contract": "contracts/data/DataStore.sol:DataStore",
            "label": "_indexes",
            "offset": 0,
            "slot": "1",
            "type": "t_mapping(t_bytes32,t_uint256)"
          }
        ],
        "numberOfBytes": "64"
      },
      "t_struct(UintSet)6643_storage": {
        "encoding": "inplace",
        "label": "struct EnumerableSet.UintSet",
        "members": [
          {
            "astId": 6642,
            "contract": "contracts/data/DataStore.sol:DataStore",
            "label": "_inner",
            "offset": 0,
            "slot": "0",
            "type": "t_struct(Set)6171_storage"
          }
        ],
        "numberOfBytes": "64"
      },
      "t_uint256": {
        "encoding": "inplace",
        "label": "uint256",
        "numberOfBytes": "32"
      }
    }
  }
}